:020000040800F2
:10000000D019002075020008E32A000881260008A4
:10001000E12A0008410A00080D3200080000000033
:10002000000000000000000000000000592C000843
:10003000F50A000800000000E52A00085B2C000813
:100040008F0200088F0200088F0200088F0200084C
:100050008F0200088F0200088F0200088F0200083C
:100060008F0200088F0200088F0200088F0200082C
:100070008F0200088F0200088F0200088F0200081C
:100080008F0200088F0200088F0200088F0200080C
:100090008F0200088F0200088F0200088F020008FC
:1000A0008F0200088F0200088F0200088F020008EC
:1000B0008F0200088F0200088F0200088F020008DC
:1000C0008F0200088F0200088F0200088F020008CC
:1000D0008F0200088F0200088F0200088F020008BC
:1000E0008F0200088F0200088F0200088F020008AC
:1000F0008F0200088F0200088F0200088F0200089C
:100100008F0200088F0200088F0200088F0200088B
:100110008F0200088F0200088F0200088F0200087B
:10012000450A00088F0200088F0200088F020008AD
:100130008F02000800000000000000008F0200088D
:100140008F0200088F0200088F0200088F0200084B
:100150008F0200088F0200088F0200088F0200083B
:100160008F0200088F0200088F0200088F0200082B
:100170008F0200088F0200088F02000800000000B4
:10018000000000008F0200080000000000000000D6
:100190008F02000800000000000000008F0200082D
:1001A0000000000000000000000000008F020008B6
:1001B0008F0200088F0200088F0200088F020008DB
:1001C0008F02000800F002F800F044F80AA090E85E
:1001D000000C82448344AAF10107DA4501D100F002
:1001E00039F8AFF2090EBAE80F0013F0010F18BF8B
:1001F000FB1A43F001031847E440000004410000EB
:10020000103A24BF78C878C1FAD8520724BF30C842
:1002100030C144BF04680C60704700000023002414
:1002200000250026103A28BF78C1FBD8520728BF06
:1002300030C148BF0B607047752900F0EF80782906
:1002400000F02881002070471FB503F067F91FBD3B
:1002500010B510BD00F0E4FA1146FFF7F5FF03F00A
:1002600041F800F002FB03B4FFF7F2FF03BC00F01B
:1002700005FB00000948804709480047FEE7FEE704
:10028000FEE7FEE7FEE7FEE7FEE7FEE7FEE7FEE746
:1002900004480549054A064B70470000F92C000840
:1002A000C5010008D0130020D0190020D01500206F
:1002B000D015002053EA020C00F069802DE9F04BC4
:1002C0004FF00006002B1FBFB3FA83F503FA05F4C5
:1002D00024FA05F65E4012BF1643B2FA82F502FA1E
:1002E00005F4C5F120051EBF22FA05FC44EA0C0402
:1002F000203556EA044C4FEA144418BF641C4FF0F2
:1003000000084FF00009904271EB030C39D300292B
:1003100019BFB1FA81F701FA07F6B0FA80F700FACF
:1003200007F6C7F120071EBF20FA07FC46EA0C06B5
:100330002037B6FBF4FCA7EB0507103F07F01F0BB7
:10034000CBF120060CFA0BFB2CFA06F644BFB346A1
:100350000026202FA4BF5E464FF0000B5BEA060C80
:1003600008BF4FF0010B19EB0B09ABFB027C48EB0C
:100370000608C01B06FB02CC0BFB03CC71EB0C0187
:10038000C1E70B46024641464846BDE8F08B13B52F
:100390004FF000004FF00001AFF30080BDE81C40BB
:1003A000704700000FB41CB5074B06AA7B44694692
:1003B0000090059800F0F1F90020694600F000FA7D
:1003C0001CBC5DF814FB00001104000070B504466D
:1003D00085690068C10601D5302600E02026C007E7
:1003E00007D070BDD4E9012130469047206A401CF7
:1003F00020626D1EF6D570BD70B504468569007823
:10040000C00707D170BDD4E9012120209047206AA0
:10041000401C20626D1EF6D570BD00002DE9F04134
:100420000646002410687529314616A510D0AFF392
:100430000080002802DA404213A507E031688A07ED
:1004400001D512A502E0490704D511A5012401E058
:10045000AFF3008000210A2206F1240709E0B0FB77
:10046000F2FCB0FBF2F302FB1C003030785418466B
:10047000491C0028F3D123462A463046BDE8F04106
:1004800000F02CB9000000002D0000002B0000003F
:100490002000000070B504460D4621461068AFF3F9
:1004A00000802188090502D50F4A7A4402E00E4AED
:1004B0007A440E32002104F1240305E000F00F0617
:1004C0000009965D5E54491C0028F7D1207800236E
:1004D000000704D5702D02D009B102231132204645
:1004E000BDE8704000F0FAB8F43D00002DE9F05F7F
:1004F000894604464FF0000ADFF824B1FB44C0F8F7
:1005000020A02046E168884700287DD0252806D015
:10051000D4E901219047206A401C2062F1E70025C0
:100520005F462046E16888472028064607DB312ED3
:1005300005D2B81910F8200C08B10543F1E7A80757
:1005400001D525F00405C4F81CA00027C4F818A0A4
:100550002A2E09D0304602F087FE38B304EB870814
:10056000303EC8F8186019E059F8041B204604EB27
:1005700087029161E1688847012F064618D1E0693A
:10058000002820DA25F020051DE0D8F8180000EB3F
:10059000800006EB40003038C8F818002046E168BB
:1005A0008847064602F060FE0028EED1012F0AD0EF
:1005B0002E2E08D12046E16888477F1C0646022F70
:1005C00045F02005C4DBA069002803DA404245F06D
:1005D0000105A061E80701D025F01005A6B1A6F13C
:1005E0004100192802D8203645F400654A463146B4
:1005F000204625604D46FFF71FFE60B1012807D059
:10060000ED1D25F0070000E007E000F1080978E79C
:1006100005F1040975E730467AE7206ABDE8F09FE6
:10062000CA3D000010B5431C02E010F8011B71B177
:100630008107FAD14FF0013202C88C1A8C4314EAB8
:10064000C211F9D0C01A0A0603D0C01E10BDC01ACC
:1006500010BD0A0401D0801E10BD0902FCD0401E4E
:1006600010BD02F0FF0343EA032242EA024200F017
:10067000AEB84FF0000200B51346944696462039B6
:1006800022BFA0E80C50A0E80C50B1F12001BFF44B
:10069000F7AF090728BFA0E80C5048BF0CC05DF8B1
:1006A00004EB890028BF40F8042B08BF704748BFFF
:1006B00020F8022B11F0804F18BF00F8012B704773
:1006C00070477047704710B500F0A2F8006810BD81
:1006D00010B5044600F09CF8046010BD2DE9F04709
:1006E0000D4699469246044600F1240801688806A2
:1006F00004D5E06921F01001216000E00120A8424A
:1007000001DD471B00E00027A1697A1902EB09000F
:10071000081AA0612078C00602D42046FFF756FED2
:10072000002608E0D4E901211AF806009047206A63
:10073000401C761C20624E45F4DB2078C0060AD5AA
:100740002046FFF743FE06E0D4E901213020904720
:10075000206A401C2062381EA7F10107F4DC07E084
:10076000D4E9012118F805009047206A401C206256
:10077000281EA5F10105F3DC2046FFF73DFE207899
:10078000000602D50220BDE8F0870120FBE700004B
:1007900001694A1C02610878704700B58FB0CDE945
:1007A00001310021059105497944CDE90310114635
:1007B0006846FFF79BFE0FB000BD0000E5FFFFFF9E
:1007C0000A6802F8010B0A6070474FF00002042922
:1007D000C0F0128010F0030C3FF44DAFCCF1040CCC
:1007E000BCF1020F18BF00F8012BA8BF20F8022BA4
:1007F000A1EB0C01FFF73FBF5FEAC17C24BF00F80B
:10080000012B00F8012B48BF00F8012B70470000B6
:10081000004870476C130020004870476C1300209C
:100820007546FFF7F9FFAE4605006946534620F0CE
:100830000700854618B020B5FFF72AFDBDE8204027
:100840004FF000064FF000074FF000084FF0000B8C
:1008500021F00701AC46ACE8C009ACE8C009ACE83F
:10086000C009ACE8C0098D46704710B50446AFF327
:1008700000802046BDE81040FFF7F5BC0149182074
:10088000ABBEFEE726000200704710B50146806B44
:10089000026C12F0500F05D0026CD20626D500F083
:1008A000ECF910BD016C41F40071016401688A68C3
:1008B00012F0405F17D1027EAAB9CA6A12F4700F13
:1008C00002D08A6852050ED44A6822F020024A609B
:1008D000016C21F480710164016CC90403D4016CC2
:1008E00041F00101016400F0BBF910BD806BC26CE6
:1008F000BDE810400846104710B5806B40210164E8
:10090000416C41F00401416400F0B7F910BD10B52D
:10091000806B00F0B1F910BD464910B54A6822F469
:1009200040324A604A6843681A434A6001684A682C
:1009300022F480724A6001684A68036942EA03222D
:100940004A6001684A6822F040724A6001684A6859
:1009500083681A434A6001688A6822F400628A60E8
:1009600001688A68C3681A438A60816A6FF070629E
:10097000D14201688A6822F070628A6001688A68E0
:100980000CD0836A1A438A6001688A6822F0405258
:100990008A6001688A68C36A1A4301E022F0405203
:1009A0008A6001688A6822F002028A6001688A68A7
:1009B000037E42EA43028A6090F820100029016811
:1009C0004A680FD042F400624A6001684A6822F423
:1009D00060424A6001684A68174C436A04EB43333B
:1009E0001A4301E022F400624A600168CA6A22F4F4
:1009F0007002CA620168CA6A838B104C04EB03530D
:100A00001A43CA6201688A6822F400728A60016827
:100A10008A6890F8303042EA43228A6001688A6826
:100A200022F480628A6001688A68406942EA802014
:100A3000886010BD0023014000E0FFFF0000F0FFD0
:100A4000FEE70000014800F03BBA00000C13002054
:100A500001681823CAB2103AB2FBF3F2054B6FF3E8
:100A60000901032A9B5CC36500D9091D81650846FD
:100A7000704700008242000810B5014600208B69D3
:100A80008A6A4FF0C07453B1B3F5005F15D072B1EC
:100A9000012A0CD0022A0AD0032A09D104E01AB193
:100AA000012A06D0022A03D1C96AC90100D5012052
:100AB00010BDC96AA142FAD010BD002AF7D0012AA0
:100AC000F2D0022AF3D0032AF3D010BD30B5046867
:100AD000256825F480252560046863608368402BC1
:100AE000036803D099600068C26030BD9A600068F6
:100AF000C16030BD704772B6FEE7000078B50024D3
:100B0000009490F83C20012A19D0012280F83C2062
:100B10000A6807230568092A13D9EE680A3A02EB26
:100B2000420293409E43EE600B788A680A3B03EBD7
:100B300043039A400368DD682A43DA6010E002202C
:100B400078BD2E6902EB420293409E432E610B78E2
:100B50008A6803EB43039A4003681D692A431A61BC
:100B60004A681F23072A13D205686E6B521E02EBD8
:100B7000820293409E436E630A8893B20A79521EA2
:100B800002EB820293400268556B2B43536327E0CC
:100B900005680D2A12D22E6BD21F02EB82029340FF
:100BA0009E432E630B790A88DB1F92B203EB83030B
:100BB0009A4003681D6B2A431A6311E0EE6A0D3AEE
:100BC00002EB820293409E43EE620B790A880D3B52
:100BD00092B203EB83039A400368DD6A2A43DA6228
:100BE0001B4B0568194A9D420AD10D68122D07D189
:100BF000556825F400055560556845F48005556035
:100C000005689D421DD1134D0B68AB4201D0112BDD
:100C100017D1536823F480035360536843F40003EF
:100C200053600968A9420CD10B490C4A0968B1FB11
:100C3000F2F101EB8101490000E0491E0091002919
:100C4000FBD180F83C40002078BD0000002301402B
:100C500000200140120000104000002040420F0020
:100C600000680349884202D1024901200870704798
:100C7000002001402E0000207047704770B504002E
:100C80004FF0000503D0206C002610B107E00120D2
:100C900070BD204600F01CF8666484F83C60206C4F
:100CA000C00610D4206C20F4885040F0020020646C
:100CB0002046FFF731FE6664206C20F0020040F011
:100CC0000100206400E0012584F83C60284670BDE6
:100CD00070B586B0064614216846FFF7CAFC1D4968
:100CE0003068884234D11C480025016841F4807185
:100CF0000160006800F4807005901748143801689E
:100D000041F0040101600068694600F004000590AC
:100D1000092000900320CDE90105104800F054FAA5
:100D2000104C0F48C4E900050015A560C4E9035044
:100D3000400060618000A0614011C4E907052046C1
:100D4000656200F08DF908B1FFF7D5FEB463A663C4
:100D500006B070BD00200140443802400008024047
:100D6000106402400C130020F8B50E460021044622
:100D7000009190F83C0013460A46012807D0012054
:100D800084F83C0020688568ED0702D011E002205D
:100D9000F8BD856845F0010585604048404D006814
:100DA000B0FBF5F000EB400000E0401E0090002892
:100DB000FBD120688568ED0503D5856825F480752D
:100DC000856020688568ED075DD0226C40F2016582
:100DD000AA4342F4807222644068400505D5206C25
:100DE00020F4005040F480502064206CC00404D5EE
:100DF000606C20F00600606400E0616484F83C10E0
:100E0000A16B2948274DC863A16B28480864A16BD2
:100E10002748C86421686FF0220008602068416894
:100E200041F0806141602068816841F48071816097
:100E3000216832464C31A06B00F07CF902466868AC
:100E40001C49C006206806D0884224D1816811F070
:100E5000405F13D01FE08842F8D0174B984203D16F
:100E6000D1F80433DB06F1D0144B984213D1D1F8FA
:100E7000041301F01F011029E8D30CE0816841F050
:100E80008041816007E0206C40F010002064606CBD
:100E900040F0010060641046F8BD000040000020F2
:100EA00040420F00002301408B0800080F09000892
:100EB000F908000800200140002101400022014003
:100EC0002DE9F84304464FF00009CDF8009063483F
:100ED0004FF41651A56D0068B0FBF1F72E6894F839
:100EE0005C10082000FA01F131420FD021680A6835
:100EF00052070BD50A6822F004020A6094F85C10CD
:100F00008840A860606D40F00100606594F85C1056
:100F10004FF0010808FA01F0304208D02168496911
:100F2000090604D5A860606D40F00200606594F881
:100F30005C1004208840304208D021680968890785
:100F400004D5A860606D40F00400606594F85C1002
:100F500010208840304218D021680968090714D54C
:100F6000A86020680168490304D50068000308D51B
:100F7000A16C07E00168C90503D4016821F00801EC
:100F80000160216C09B12046884794F85C1020204C
:100F90008840304231D021680968C9062DD5A86043
:100FA00094F8350005282068016806D0490347D524
:100FB000006800031DD4616C1CE021F01601016083
:100FC0002068416921F080014161206C08B9A06C62
:100FD00020B12068016821F00801016094F85C10DC
:100FE0003F208840A86084F8358084F83490216DD3
:100FF0001FE0E16B09B120468847606D00282BD0C7
:10100000606DC00714D0052084F8350020680168A1
:1010100021F0010101600098401C0090B84203D803
:1010200020680068C007F6D184F8358084F83490D1
:10103000E16C002910D001B02046BDE8F04308471C
:101040000168C905D5D4016821F01001016084F858
:10105000358084F83490CCE7BDE8F8834000002068
:101060002DE9F041044600F0A3F906465CB10220E8
:1010700084F83500002584F834502068016821F098
:10108000010101600DE00120BDE8F08100F090F960
:10109000801B052805D920206065032084F83500D1
:1010A000F2E720680068C007F0D122681168204884
:1010B0000140D4E901031843D4E90336334318430C
:1010C00063691843A3691843E3691843236A184303
:1010D0000843616A042903D1D4E90B131943084377
:1010E000106020684069666A20F0070130460E43B0
:1010F000012704280CD1A06A0643E06A40B12046CB
:10110000FFF7BAFC20B14020606584F83570BAE77B
:10111000206846612046FFF79BFC94F85C203F2145
:1011200091408160656584F835700020ACE700006F
:101130003F8010F02DE9F0410446866D90F83400B0
:10114000002501280DD0012084F8340094F8357072
:101150000020012F07D084F8340002252846BDE87E
:10116000F0810220FBE7022784F835706065204695
:10117000FFF7ACFC94F85C103F208840B06020681A
:10118000016841F016010160206C20B120680168FF
:1011900041F0080101602068016841F0010101602F
:1011A000DCE7000070B5044600F002F90546601C5B
:1011B00002D004480078044400F0FAF8401BA04232
:1011C000FAD370BD340000202DE9F84FDFF8ACA150
:1011D0000022012403254FF00F090AF1040BAAF1A4
:1011E000040E00BF0B6804FA02F63340B3426ED11E
:1011F0000F7907F00307012F01D0022F16D187685E
:101200004FEA420805FA08FC27EA0C07D1F80CC09F
:101210000CFA08FC4CEA070CC0F808C04768B74352
:101220000E79C6F3001696403E4346600E79F643AB
:10123000B6070AD0C6684FEA420C05FA0CF7BE435F
:101240008F6807FA0CF73743C7600E7906F003067C
:10125000022E10D1D60800EB8608D8F82060570778
:101260004FEAD76C09FA0CF7BE430F6907FA0CF77F
:101270003743C8F8207006684FEA420C05FA0CF7AD
:10128000BE430F7907F0030707FA0CF737430760EF
:101290004E6816F4403F6BD0394E376847F48047AC
:1012A0003760366822F0030706F480460096354E14
:1012B00007EB060CDCF8086897074FEA177809FA7D
:1012C00008F7BE43304FB84202D100271FE04FE07D
:1012D0002E4FB84201D1012719E02D4FB84201D15C
:1012E000022714E02B4FB84201D103270FE02A4F09
:1012F000B84201D104270AE0284FB84201D105279E
:1013000005E0274FB84201D1062700E0072707FA7A
:1013100008F73743CCF80878DAF800605746D1F878
:1013200004C09E435FEACC2C00D51E433E60DBF830
:1013300000605F46D1F804C09E435FEA8C2C00D564
:101340001E433E60DEF800607746D1F804C09E433D
:101350005FEA8C3C00D51E433E60084F083F3E6864
:10136000D1F804C09E435FEACC3C00D51E433E60EA
:10137000521C102AFFF436AFBDE8F88F083C01403C
:1013800044380240003001400000024000040240A6
:1013900000080240000C024000100240001402400D
:1013A000001802400AB1816170470904FBE70000A0
:1013B00001488068704700003400002070B50400C8
:1013C00025D094F83D00002520B984F83C502046F3
:1013D00000F004FA242084F83D002068016821F020
:1013E000010101602068016841F40041016020684A
:1013F000016821F40041016000F040FE4D4A61683F
:10140000914201D84C4900E04C49884201D2012068
:1014100070BD4B492368B0FBF1F15E6826F03F06D2
:101420000E435E606368934206D94FF49673594346
:101430004FF47A73B1FBF3F12368491C1E6A26F05E
:101440003F06314319626168914210D84900401E3D
:10145000B0FBF1F2521CC2F30B02042A01D20420A9
:1014600022E0B0FBF1F0401CC0F30B001CE0A268CE
:10147000F2B301EBC10303EB0116431EB3FBF6F31A
:101480005B1C43F480431B0549D092B301EBC102BE
:1014900002EB0111401EB0FBF1F0401CC0F30B0049
:1014A00040F4804040F400402168CA694CF6FF7364
:1014B0009A431043C861D4E90710014320680268C9
:1014C00022F0C00211430160D4E903010143206806
:1014D000826848F2FF339A4311438160D4E90501E1
:1014E00008432168CA6822F0FF021043C86001E087
:1014F0000EE016E02068016841F0010101602564FA
:10150000202084F83D00256384F83E50002070BD03
:1015100001EB4106431EB3FBF6F35B1CB3E701206E
:10152000C2E701EB4101401EB0FBF1F0401CC0F3EB
:101530000B00B7E7A086010080841E0000093D0073
:1015400040420F002DE9FF4F81B089460446FFF766
:101550002FFF054694F83D004FF0000820287DD16C
:101560001923012250492046009501F01BF900285B
:1015700074D194F83C00012870D0012084F83C001C
:1015800020680168C90703D1016841F001010160C9
:101590002068016821F400610160242084F83D0086
:1015A000002626644148E0624FF0011B2027206896
:1015B000016841F48071016000950022594620467F
:1015C000049B01F0EFF850B120680068C00502D517
:1015D0004FF400702064032005B0BDE8F08F21684F
:1015E00009F0FE000861FFF7E3FE2168054648693F
:1015F0004969C0F34000C1F380214FF0A00A0FE019
:10160000FFF7D6FE411B0498814200D808B984F840
:101610003DA0216848694969C0F34000C1F38021B9
:1016200094F83D20A02A02D008B90029E8D084F817
:101630003D7020684169C943890716D4016841F4A7
:1016400000710160206841698069192301221649EF
:101650002046009501F0A6F8B8B900E021E084F832
:101660003D7084F83C600020B6E7016841F40071E9
:10167000016021686FF480604861192301220A49E2
:101680002046009501F08EF808B10120A4E70398E8
:1016900008F1010880458AD384F83D7084F83C60E5
:1016A000F3E7022098E70000020010000000FFFFAF
:1016B0002DE9F84F1F4690468A460446DDF82890EB
:1016C000FFF776FE054694F83D0020287FD11923C8
:1016D000012240492046009501F064F8002876D1A7
:1016E00094F83C00012872D0012084F83C00206866
:1016F0000168C90703D1016841F001010160206858
:10170000016821F400610160212084F83D0010206F
:1017100084F83E0000262664C4F824806785608D26
:1017200020852D48E0622B464A465146204600F06F
:10173000BFFF90B9206841698069009036E02A4671
:101740004946204601F0D4F850B1206C042804D159
:101750002068016841F4007101600120BDE8F88F44
:10176000606A216800780861606A401C6062618D6F
:10177000491E6185218D491E89B2218522685369E0
:10178000DB435B070BD451B100781061606A401CE9
:101790006062608D401E6085208D401E20852A4637
:1017A0004946204600F0D2FF0028CED1208D0028E7
:1017B000C5D154F83D0B016841F40071016020204F
:1017C00004F81E09E67766770020C7E7FFE70220E6
:1017D000C4E70000020010000000FFFF10B586B053
:1017E000044614216846FEF744FF134920688842E6
:1017F0001FD11248016841F02001016000681221E8
:1018000000F0200005900320CDE900010121CDE981
:1018100002100420049069460948FFF7D5FC0748E8
:101820001030016841F480010160006800F480001C
:10183000059006B010BD000000580040303802404E
:1018400000140240024881680278114481607047A8
:10185000340000200B4810B5016841F400710160AC
:10186000016841F480610160016841F480710160A8
:10187000032000F06FF8002000F006F800F024F8D4
:10188000002010BD003C024070B50D4D04464FF4E1
:101890007A712878B1FBF0F00A490968B1FBF0F0E1
:1018A00000F022FE48B9102C07D200222146501E1B
:1018B00000F030F800206C6070BD012070BD0000A9
:1018C00034000020400000200A4808B5016841F4B7
:1018D00080410160006800F4804000900548001FCE
:1018E000016841F080510160006800F08050009074
:1018F00008BD000044380240002809DB00F01F0248
:10190000012191404009800000F1E020C0F8001161
:1019100070470000F0B40E4B1B680C46C3F3022363
:10192000C3F10705042D00D90425191D072901D28B
:10193000002300E0DB1E012606FA05F1491E2140C6
:1019400099409E40761E16403143F0BC01F05FBCCA
:101950000CED00E0064900F0070208684FF6FF03AF
:10196000184040EA0220034A104308607047000014
:101970000CED00E00000FA0501220168C0F8D8244F
:10198000002280F8CC24886940F000608861486DAE
:10199000024A104348650020704700000300001011
:1019A000F8B5040005D094F895042668002510B118
:1019B00006E00120F8BD84F89454204600F05CF85D
:1019C000032084F89504B6F1A04F00D1A5712068DA
:1019D00001F0AEFB207C8DF8000094E80F0001F0D0
:1019E0007BFA0226B8BB0021206801F0E1FB90BB26
:1019F000002001270DE000BF00EBC00104EB8101D6
:101A00004F750875C8850D76CD610D62401CC0B25A
:101A10004D6221798142EFD8002011E000EBC00136
:101A200004EB810181F8555281F8540281F8585233
:101A3000C1F85C52C1F86052401CC0B2C1F8645297
:101A400021798142EAD8207C8DF8000094E80F00CB
:101A500001F0B4FA10B184F89564AAE7657484F8CB
:101A60009574207B012802D12046FFF785FF20686E
:101A700001F096FA0020F8BD30B59DB0044614215F
:101A800017A8FEF7F6FD5C216846FEF7F2FD206818
:101A9000B0F1A04F3AD14FF480700024009015941B
:101AA000684600F039F808B1FFF725F818480168D2
:101AB00041F0010101600068164D00F001001C902A
:101AC0004FF4E85017900220CDE9180403201A9033
:101AD0000A201B9017A92846FFF776FB6815CDE969
:101AE000170417A928461994FFF76EFB0848001D34
:101AF000016841F08001016005481430016841F43B
:101B000080410160006800F480401C901DB030BD31
:101B100030380240000002402DE9F84F044600260C
:101B20000078F84D3746C00708D02868A16B20F030
:101B3000C06008432860A06B00B9012620788007A8
:101B400008D52868E16B20F0C05008432860E06B9E
:101B500000B90126207840070ED52868216B20F4B3
:101B6000401008432860206BB0F5801F01D010B1F1
:101B700002E0012600E00127207800070ED5286842
:101B8000616B20F4400008432860606BB0F5800F63
:101B900001D010B102E0012600E0012720784FF0CB
:101BA000000A80064FF0010B63D5D6484C38016817
:101BB00041F0805101600068DFF84C9300F08050E4
:101BC0000090D9F8001041F48071C9F80010FFF7B7
:101BD000EFFB804606E000BFFFF7EAFBA0EB080042
:101BE00002286FD8D9F80000C005F5D5DFF81483B6
:101BF000A8F11C08D8F8000010F4407024D0B4F804
:101C0000401001F4407181421ED0D8F80010BF4A44
:101C100021F44071C2F800B0C2F800A0C8F800106A
:101C2000D8F80000C0070FD0FFF7C2FB814607E0DD
:101C3000FFF7BEFBA0EB090141F288308142D0D80A
:101C4000D8F800008007F3D5216CAE48C1F301221B
:101C50008438032A37D0016821F4F811C0F8001045
:101C6000D8F80010B4F84020C2F30B021143C8F8B2
:101C700000102078C00604D5A54894F85810C0F884
:101C8000E01120780106A34805D50168E26C21F433
:101C90004001114301602178490605D50168A26C15
:101CA00021F08061114301602188C90514D50168C4
:101CB000626D21F0006111430160616DB1F1006F4F
:101CC00009D009E01DE10268934B22F4F812194093
:101CD0000A430260C4E701272188890505D5016808
:101CE000626C21F08051114301602188DFF82C9251
:101CF000490509D50168226D21F0005111430160A9
:101D0000206DB0F1005F04D01EB92068B0F5006FFF
:101D10007ED18349C1F868A0FFF74AFB794E80461F
:101D20008C3E05E0FFF744FBA0EB0800022886D8B4
:101D300030680001F6D421687A48CA0701D0A26B46
:101D40001AB1890717D5E16BA9B901680268C1F317
:101D50000141491CD4E9013C43EA8C1321F0004CB9
:101D6000C2F3036209EB0C4141EA02610B43217D9E
:101D700043EA0171016021684A0703D5226BB2F57D
:101D8000801F05D0090721D5616BB1F5800F1DD1EA
:101D900001680268C1F30141491CD4E9013C43EAEE
:101DA0008C1321F0004C09EB0C4194F810C0C2F3E5
:101DB000027241EA0C610B4343EA02710160296837
:101DC000A26A21F01F01521E114329602188490592
:101DD0001AD5216DB1F1005F16D101680268C1F317
:101DE0000141491CD4E9013C43EA8C13D4F80CC0EE
:101DF000C2F302724FEA5C0809EB084C4CEA4161FD
:101E00000B4343EA027101602188090511D500E006
:101E10001FE0D4E9011241EA8211E268530809EB9C
:101E20000342237C42EA03621143227D41EA0271AC
:101E300001603B49C1F868B0FFF7BAFA804605E097
:101E4000FFF7B6FAA0EB0800022874D8306800014A
:101E5000F6D5EFB3DFF8C880C8F870A0FFF7A8FA8E
:101E6000304E0746843E04E0FFF7A2FAC01B02286A
:101E700061D83068C0438000F6D521682A484A07F7
:101E800001D5226B1AB109071DD5616BD9B901685B
:101E9000D4E90623C1F30141491C42EA831221F02F
:101EA000004309EB034194F8243041EA03610A43FB
:101EB00002602968E26A6FF0FF0321F4F85103EB36
:101EC0000222114329602188C90514D5616D00E003
:101ED00038E0B1F1006F0ED10168D4E9062342EA7F
:101EE0008312236AC1F303615C0809EB044343EAEC
:101EF00001610A430260C8F870B0FFF759FA04465E
:101F00001CE018E08C38024000700040400E474250
:101F10000010474294380240FFFCFF0F0000FFFF13
:101F2000000047428438024088380240FFF740FAF8
:101F3000001B022802D90320BDE8F88F3068C04397
:101F40008000F3D40020F7E72DE9F0470E460500A6
:101F500065D0DFF81481D8F80000F7B200F00F0068
:101F6000B04207D288F80070D8F8000000F00F00E7
:101F7000B04254D128683D4C810712D5400703D5A3
:101F8000206840F4E05020602878000703D52068DE
:101F900040F4604020602068A96820F0F000084309
:101FA00020602878C0072DD030496868083901289A
:101FB00012D0022813D0032811D0096889070029FC
:101FC0002DDA216821F0030101432160FFF7F0F9C8
:101FD000814641F2883A0EE009688903EFE7096813
:101FE0008901ECE7FFF7E4F9A0EB0901514502D9BB
:101FF0000320BDE8F0872068696800F00C00B0EBB2
:10200000810FEFD1D8F80010404601F00F01B14226
:1020100007D90770006800F00F00B04201D001201E
:10202000E7E72878400705D52068E96820F4E05004
:10203000084320602878000706D52068296920F425
:10204000604040EAC100206000F038F82168084A8A
:10205000C1F30311515CC840064908600648006896
:10206000FFF712FC0020C4E7003C024008380240A1
:102070008A4200084000002038000020044805493A
:1020800000680968044AC1F38221515CC840704766
:1020900040000020083802409A42000804480549E0
:1020A00000680968044AC1F34231515CC840704776
:1020B00040000020083802409A420008224810B52B
:1020C000006810F00C02214815D04110042A11D0EC
:1020D0001D4C241F082A0FD00C2A0CD1226823681B
:1020E00002F03F025B0221D52068C0F38810A0FBFC
:1020F000010120E0084610BD2268236802F03F027B
:102100005B0205D52068C0F38810A0FB010104E044
:102110002168C1F38811A1FB00010023FEF7CAF872
:102120002168C1F30141491C49000AE02168C1F35B
:102130008811A1FB00010023FEF7BCF82168C1F360
:102140000271B0FBF1F010BD083802400024F40029
:102150002DE9F84F04007DD0DFF878B32078ABF19B
:102160000407C007A7F1040550D0DBF8001058465B
:10217000C1F3810101290FD00168C1F38101022956
:1021800002D13968490207D40068C0F381000328EE
:1021900009D13868400206D52868800336D56068C2
:1021A0000028D8D032E06068B0F5803F10D0B0F59C
:1021B000A02F286810D020F480302860286820F4F0
:1021C000802028606068A0B1FFF7F2F806460CE0B6
:1021D000286840F48030F4E740F480202860F7E776
:1021E000FFF7E6F8801B642876D828688003F7D5C7
:1021F0000CE0FFF7DDF8064605E000BFFFF7D8F872
:10220000801B6428F0D828688003F7D42078DFF892
:10221000C89280074FF0000A44D5DBF800105846FA
:1022200011F00C0F0FD00168C1F38101022902D116
:102230003968490207D50068C0F3810003280AD134
:102240003868400207D42868800715D5E06801285F
:1022500000D111E03AE1E068B0B10120C9F8000016
:10226000FFF7A6F8064604E0FFF7A2F8801B022855
:10227000BAD828688007F7D52868216920F0F800C7
:1022800040EAC10028600DE0C9F800A0FFF790F80F
:10229000064604E0FFF78CF8801B02281CD828684B
:1022A0008007F7D42078000727D5DFF828828B48ED
:1022B000616908F16C0881B101210160FFF778F8CC
:1022C000064604E0FFF774F8801B022804D8D8F80B
:1022D00000008007F6D510E089E0C0F800A0FFF705
:1022E00067F8064605E000BFFFF762F8801B02288A
:1022F0007DD8D8F800008007F6D42078400769D54B
:1023000074484FF0000838300068C0000BD47148A2
:102310003830016841F08051016000684FF00108D9
:1023200000F0805000906E4E3068C00511D43068C7
:1023300040F480703060FFF73BF8009006E000BF8B
:10234000FFF736F80099401A022850D83068C005C7
:10235000F6D5604EA068683601280FD00528306891
:1023600010D020F001003060306820F004003060B0
:10237000A068B8B1FFF71CF800900FE0306840F09B
:102380000100F4E740F004003060F7E7FFF710F8D1
:102390000099411A41F28830814264D83068800740
:1023A000F4D50EE0FFF704F8009007E0FFF700F81F
:1023B0000099411A41F28830814254D83068800730
:1023C000F4D4B8F1000F05D042483830016821F04C
:1023D00080510160A069A8B3DBF80010C1F381014E
:1023E000022947D00228C9F860A005D000E03AE0F1
:1023F000FEF7DEFF044639E0FEF7DAFF064604E0AA
:10240000FEF7D6FF801B02282DD828688001F7D45C
:10241000F4E907010843E168324A490802EB014147
:10242000A26841EA82110843217C40EA0160217DD3
:1024300040EA017038600120C9F86000FEF7B8FF7B
:10244000044606E044E000BFFEF7B2FF001B02288E
:1024500009D828688001F7D53AE000BFFEF7A8FF49
:10246000001B022802D90320BDE8F88F28688001EC
:10247000F4D42DE00128F7D03868E26900F4800137
:10248000914223D1226A00F03F0191421ED147F6CA
:10249000C071626A0140B1EB821F17D1A26A4FF08E
:1024A000FF3300F4403103EB5202B1EB024F0DD188
:1024B00094F82C2000F07061B1EB026F06D194F813
:1024C000301000F0E040B0EB017F01D00120CBE7FD
:1024D0000020C9E70838024000004742800E47420A
:1024E000007000400000FFFF10B5401EB0F1807F7B
:1024F00001D3012010BD4FF0E02460610F2160176F
:1025000000F085FE0020A06107202061002010BDA2
:1025100070B5040004D094F84100002510B106E025
:10252000012070BD84F84050204600F023F824209C
:1025300084F841002068C16821F40051C160204640
:1025400000F00AFC2068016921F4904101612068D3
:10255000416921F02A0141612068C16841F40051BC
:10256000C1606564202084F8410084F842006563FE
:10257000002070BD10B586B0044614216846FEF7F1
:1025800078F814492068884221D113480021026854
:1025900042F480220260006800F4802005900E481A
:1025A0001038026842F008020260006800F008007B
:1025B00005904FF4407000900220CDE90101032006
:1025C00003900720049069460448FEF7FDFD06B01D
:1025D00010BD00000048004040380240000C02409E
:1025E0002DE9F843044690F84100984616460D46FA
:1025F000202802D00220BDE8F88385B17EB10020FA
:102600006064212084F84100FEF7D2FEA684814652
:10261000E684A0682027B0F5805F02D003E00120A7
:10262000E9E7206910B12E4600250EE000260CE0F7
:102630008021204600F016FCA8B9C6B116F8010B9F
:1026400021684860E08C401EE084E08C4B464FF0EF
:102650000002CDF800800028EAD14FF0400120466A
:1026600000F000FC40B184F841700320C3E735F866
:10267000020BC0F30800E3E784F841700020BAE7DA
:10268000FEE701684A69D24352050FD46FF48062B5
:102690004A61002140F8301F202242738173026991
:1026A00042F004020261017301207047002070476C
:1026B000F8B50446C06A1E460D461746082807D0DE
:1026C000012805D010F5803F02D0206B122804D1DC
:1026D0002068016841F480710160134600224FF0C8
:1026E00001112046009600F05DF840B120680068B6
:1026F000C00502D54FF4007020640320F8BD2069A6
:10270000B0F5804F0ED00620216800EAD51040F0C9
:10271000F000086133463A460B49204600F08AF83B
:1027200078B902E005F0FE0000E0E8B22168086137
:10273000054933463A46891F204600F07BF80028B9
:10274000DCD00120F8BD00000800010070B516467D
:102750000D4604461EE02046FFF793FF08B1012016
:1027600070BD681C16D0FEF723FE801BA84200D85F
:1027700085B920684069C04340070BD5002044F864
:10278000300F20216173A073216941F02001216184
:102790002073E4E720684069C0434007DBD4002091
:1027A00070BD00002DE9F047984617460D460446D7
:1027B000C1F30746DDF820902AE000BFB8F1FF3FE3
:1027C00026D0FEF7F5FDA0EB0901414502D8B8F18E
:1027D000000F1DD12068012E16D0806925EA000067
:1027E0000004000C12D00020B84211D1002044F89F
:1027F000300F20216173A073216941F02001216114
:1028000020730120BDE8F0874069E7E70120EBE78E
:102810002068012E0AD0806925EA00000004000C1F
:1028200006D00020B842C9D00020EBE74069F3E7AA
:102830000120F7E72DE9F047984616460D46044675
:102840004FF000094FF0200AC1F3074723E020684A
:102850004069C043400515D42068016841F4007107
:10286000016021686FF480604861C4F8309084F89A
:102870003DA084F83E90216C41F00401216484F86D
:102880003C9021E0701C06D0FEF792FDA0EB080002
:10289000B04203D816B1012F1FD021E02068012FCC
:1028A00015D0806925EA00000004000C18D000BF94
:1028B00044F8309F84F80DA084F80E90216941F00F
:1028C0002001216184F80C900120BDE8F087406967
:1028D00025EA00000004000CEAD12068406901E00C
:1028E0002068806925EA00000004000CAFD1ECE705
:1028F00070B516460D4604461EE02046FFF7C1FEA1
:1029000008B1012070BD681C16D0FEF751FD801B78
:10291000A84200D885B920684069C04300060BD59D
:10292000002044F8300F20216173A073216941F029
:10293000200121612073E4E720684069C04300065C
:10294000DBD4002070BD00007FB500241548009442
:10295000019402941249039401604FF48031C0E95C
:10296000011401250461057680F820400E49C0E974
:102970000A14C561C46080F830504561FEF77EF9E5
:1029800008B172B6FEE70A20CDE900056946029457
:102990000448FEF7B3F8002801D072B6FEE77FBD09
:1029A00000200140440500200100000FF0B587B071
:1029B00014216846FDF75DFE37480024016841F0A8
:1029C00004010160016801F004010591016841F012
:1029D00020010160016801F020010591016841F0CA
:1029E00080010160016801F080010591016841F0FA
:1029F00002010160016801F002010591016841F0E6
:102A000008010160016801F008010591016841F0C9
:102A100040010160016801F040010591016841F049
:102A20000101016000681D4E00F0010044F28105C3
:102A30000590002229463046FEF7B4FC184F0022CC
:102A400040213846FEF7AEFC4FF4005000904FF4A2
:102A50008810CDE9010469461248FEF7B5FB0095E0
:102A60000125CDE90154694630460394FEF7ACFBDD
:102A700040200090CDE90154694638460394FEF7A2
:102A8000A3FB8020CDE90004694638460294FEF796
:102A90009BFB07B0F0BD000030380240000402404C
:102AA00000180240000802400C4810B54FF0A04149
:102AB0000160062101710222C271002181714272FE
:102AC00001228272C17201738273C173FEF768FFC3
:102AD000002801D072B6FEE710BD000028060020D5
:102AE000FEE7FEE7704710B5002000F005F8BDE8EE
:102AF000104000F091B8000028B1FF224FF480612F
:102B00000248FDF7AEBD0022F8E7000044010020B6
:102B100010B544F62063012278210B48FEF712FD20
:102B200008B1012010BD0A20FEF73CFB1D23074A17
:102B30000021782000F0D6FC0020FFF7DDFF00F038
:102B40006BF8002010BD00008C0500201000002054
:102B50002DE9FF4F203A9A468B465F2A25D202EB99
:102B6000C2004FEA400900254FF00108DAF80410CE
:102B700009EB0500002431F810600BEB050700BFDE
:102B8000C4F10F0108FA01F0304206D00098B9B242
:102B9000204480B2012200F023F8641CA4B20B2C64
:102BA000EED36D1CADB2122DE0D3BDE8FF8FF0B5B2
:102BB00000240F46064625460DE00A2A07D03B466C
:102BC00029462046FFF7C4FF0B34A4B202E00024DC
:102BD0001235ADB2761C3278002AEED10020F0BD5D
:102BE00010B5802801D2402901D3012010BDCB08A7
:102BF00000EBC31083B20748012401F007018C40A9
:102C0000C15C012A03D0A143C154002010BD21435F
:102C1000FAE700004401002038B50DA00D4D006812
:102C20000024009004F1B0008DF8000003236A46F0
:102C30000021782000F056FC05EBC41280234021CF
:102C4000782000F04FFC641CE4B2082CEAD338BDB5
:102C500000001000440100207047FEF7F3BD0000A3
:102C600030B593B034216846FDF703FD14210DA85B
:102C7000FDF7FFFC1E480025016841F0805101600E
:102C8000006800F0805012901A48016841F44041F9
:102C900001600068022400F440401290012000907E
:102CA0004FF4A02001906005CDE906400420089073
:102CB000A820CDE909040720CDE90B046846FFF7F9
:102CC00047FA08B172B6FEE70DA90F2081E831007E
:102CD0004FF4A05010904FF48050119005210DA892
:102CE000FFF732F9002801D072B6FEE713B030BD0D
:102CF00040380240007000400248016841F4700111
:102D00000160704788ED00E001680C3151E8002F48
:102D100022F4907241E80023002BF5D101681431B0
:102D200051E8002F22F0010241E80023002BF5D1E9
:102D3000016B012909D101680C3151E8002F22F003
:102D4000100241E80023002BF5D1202180F8421029
:102D5000002101637047000070B5044600680169F6
:102D6000E26821F44051114301612169A068E269E0
:102D700008436169114308432168CA6849F20C633A
:102D80009A430243CA6020684169A26921F44071F4
:102D90001143416131492068884202D0304988425C
:102DA00002D1FFF77BF901E0FFF768F9E269002340
:102DB000192164253226B2F5004F626828D0A0FBA5
:102DC0000101930F9200FDF775FA0146B0FBF5F093
:102DD0006FF01802504301EB800006EB0010B0FBCF
:102DE000F5F000F0F002B1FBF5F002EB0012B1FBE0
:102DF000F5F06FF01803584301EB800006EB00106C
:102E0000B0FBF5F000F00F0021681044886070BD41
:102E1000A0FB010192185B41FDF74CFA0146B0FBA3
:102E2000F5F00201B1FBF5F06FF01803584301EB28
:102E3000800006EBC000B0FBF5F000F0F80002EBFC
:102E40004002B1FBF5F0584301EB800006EBC000F7
:102E5000B0FBF5F000F00700D6E7000000100140DD
:102E6000001401402DE9F843984617460D460446E4
:102E7000089E24E0701C22D0FEF79AFAA0EB08000E
:102E8000B0421AD8CEB12068C168490717D5802D45
:102E900015D0402D13D00168C94309070FD401682C
:102EA0000025406800902046FFF72EFF0820606450
:102EB00084F840500120BDE8F8830320FBE7206838
:102EC000006835EA000004D00020B842D2D00020CB
:102ED000F1E70120F9E7000070B50D460446C2F3A2
:102EE000072104981E4601291BD0E06840F04000ED
:102EF000E060204600F032F8C6F307210029A16BFC
:102F000026D021F48031A163C5F30741012907D1FF
:102F1000A16841F00601A160A16841F02001A16013
:102F200070BDA16B21F48031A163E1680A4A1140B0
:102F3000E160E16821F44011E160C0B2012803D1F1
:102F4000E06840F48010E060204600F007F8DBE71E
:102F500041F48031D7E70000BFFFBDFF08B5002175
:102F600000914FF07061009A521C00928A4210D872
:102F70000269002AF7DA0A220092521E0092FCD15E
:102F8000026942F001020261009A521C00928A42D8
:102F900001D9032008BD0269D207F5D1002008BD80
:102FA000D0F8001E21F00301C0F8001ED0F804186C
:102FB00041F00201C0F80418002070472DE9F04FDD
:102FC00000250E46044617462846294604EB800293
:102FD000C2F80411401C0F28F8D3C3F307405FEA7E
:102FE0000009204612D0806B40F40012A26308460C
:102FF00088462146C4F8000EC7F30720012818D0E0
:103000000846D1F8001841F0030119E0D0F804088F
:1030100040F00202C4F80428A06B20F40012A2635E
:10302000206840F040022260206840F08002226068
:10303000DDE7300E0846D1F8001801D041F001015B
:10304000C0F80018102100F095F800B101252046C5
:1030500000F074F800B101254046C4F81088C4F8A7
:103060001488C4F81C8800214FF0006B4FF0904E7C
:103070004FF67F3AF2B214E004EB4113D3F800C9E3
:10308000BCF1000F06DA11B1C3F800E904E0C4F89E
:1030900000B901E0C3F80009C3F81009C3F808A992
:1030A000491C8A42E8D8002115E000BF04EB411317
:1030B000D3F800CBBCF1000F06DA11B1C3F800EB76
:1030C00004E0C4F800BB01E0C3F8000BC3F8100B28
:1030D000C3F808AB491C8A42E8D8D4F8101821F488
:1030E0008072C4F81028A0616FF080406061C6F360
:1030F000074018B9A06940F01000A061A0690A4912
:103100000843A061C7F3074018B1A06940F0080068
:10311000A061B9F1010F03D1A06904490843A0617E
:103120002846BDE8F08F000000383C8004000040D5
:10313000816821F0010181600020704708B50021FD
:103140004FF070620091009B5B1C009393420AD881
:103150000369002BF7DA0091102101610099491CE5
:103160000091914201D9032008BD0169C906F5D437
:10317000002008BD18B500224FF070630092009C3B
:10318000641C00949C420CD80469002CF7DA00926D
:10319000202242EA811101610099491C0091994263
:1031A00001D9032018BD01698906F5D4002018BD96
:1031B00070B50446C068002520F0C040E0600129D9
:1031C00001D079B120E0E06840F00050E0600A20D2
:1031D000FDF7E8FF60690A3510F0010F10D1C82D26
:1031E000F5D30DE0E06840F08040E0600A20FDF794
:1031F000D9FF60690A3510F0010F01D0C82DF5D351
:10320000C82D01D0002070BD012070BDFEE7090768
:10321000090E002804DB00F1E02080F8001470475C
:1032200000F00F0000F1E02080F8141D704710B589
:103230002DED028BB1EEC08A18EE100A20F000408E
:10324000C0F1FF40C00F0AD010EE100A20F000407D
:10325000C0F1FF40C00F04BF0120FDF739FAB0EE06
:10326000480ABDEC028B10BD30380A2801D201207B
:1032700070470020704700002DE9F04100231A46F6
:1032800004E000BF30F81240521C23448A42F9D3B4
:10329000B3FBF1F70024254623460DE030F8132058
:1032A000D21B01D496B201E05642B6B2AE4200D96A
:1032B000354602FB02445B1C8B42EFD300EE104A02
:1032C000F8EE400A00EE101AB8EE401A80EE810ABD
:1032D000FFF7ADFFBCEEC00A10EE100A80B2BDE8E9
:1032E000F081000098B0FEF7B5FAFFF7B9FCFFF7E0
:1032F0005DFB4C480024016841F4800101600068D6
:10330000224600F480000A9021463820FEF702FB96
:103310003820FEF7F1FAFFF717FB444842490160F5
:103320004FF4E131C0E901140C21C460C0E904414B
:103330008461C461FFF7ECF808B172B6FEE7FFF7ED
:10334000B3FB3A483A49543801603A49C0E901149C
:103350004FF48041C0E9034144618461C461046267
:10336000FEF72CF808B172B6FEE7FFF7D1FB022595
:103370002E480A23012229465438FEF7E3F868B99B
:103380002A462DA16846FDF70DF86846FDF74AF973
:1033900082B2642369462548FFF722F9AD1CEDB2DD
:1033A000FE2DE5D328A16846FCF7FCFF6846FDF733
:1033B00039F982B2642369461C48FFF711F9FFF717
:1033C00092FB002000F052F822494FF480673A4601
:1033D000A1F5B960FDF7C8FC1F4D0026287800282C
:1033E000FCD02C7039461B48FFF746FF6880FDF77C
:1033F000DFFF801B6428F1D9FDF7DAFF06466A88F3
:1034000016A10AA8FCF7CEFF0AA8FDF70BF982B2B5
:1034100064230AA90548FFF7E3F8688800F026F856
:10342000DCE700003038024000480040E0050020A2
:1034300000580040A0860100466F756E643A203047
:1034400078253032580D0A005363616E20646F6E28
:10345000650D0A000C0B00202E000020566F6C75C5
:103460006D653A2025750D0A00000000F0B505468F
:1034700004464FF4167089B0844200D90446C4EB68
:103480000411C900B1FBF0F0C6B20020FFF734FB15
:103490002A4610A16846FCF785FF11496846FFF7E8
:1034A00086FB04241C25271FB74201D2012200E01D
:1034B000002229462046FFF793FB6D1CADB22C2D50
:1034C000F2D3641CA4B27C2CECD3FFF7A5FB09B0AB
:1034D000F0BD00004D494320564F4C3A253475004D
:1034E00000000020F8B50C460A490C70002404E0E6
:1034F000155D0E19641C7570A4B29C42F8D30A21A4
:1035000000915B1C01469BB2024A0348FEF7D0F8CB
:10351000F8BD0000440000208C0500204FF04070F2
:10352000E1EE100A704700000000000000000000FB
:10353000000000000000000000000000000000008B
:10354000000000000000000000000000000C000C63
:10355000000C000C000C000C000C000C000C000C0B
:10356000000C0000000C000C000000000000000037
:10357000001B001B001B001B001B000000000000C4
:10358000000000000000000000000000000000003B
:10359000000000008019801980198019C07FC07F49
:1035A00080190033C07FC07F003300330033003305
:1035B0000000000000000000001E003F80758065D4
:1035C0000074003C001E00078005806580658075E2
:1035D000003F001E0004000400000000007000D83E
:1035E00040D8C0D880D900730006000C801BC036BC
:1035F000C066C046C0068003000000000000000056
:10360000001E003F003300330033001E000CC03C9E
:10361000C066806380618063C03E801C0000000043
:1036200000000000000C000C000C000C000C00005E
:10363000000000000000000000000000000000008A
:1036400000000000000080000001000300060006EA
:103650000004000C000C000C000C000C000C00041A
:103660000006000600030001800000200010001882
:10367000000C000C00040006000600060006000610
:1036800000060004000C000C0018001000200000D0
:10369000000C002D003F001E003300000000000061
:1036A000000000000000000000000000000000001A
:1036B0000000000000000000000C000C000C000CDA
:1036C000C0FFC0FF000C000C000C000C000000004C
:1036D00000000000000000000000000000000000EA
:1036E00000000000000000000000000000000000DA
:1036F000000C000C000400040008000000000000A2
:10370000000000000000000000000000001E001E7D
:1037100000000000000000000000000000000000A9
:103720000000000000000000000000000000000099
:103730000000000000000000000C000C0000000071
:10374000000000000003000300030006000600065E
:103750000006000C000C000C000C001800180018EB
:103760000000000000000000001E003F00338061E8
:1037700080618061806D806D8061806180610033D7
:10378000003F001E00000000000000000006000EC8
:10379000001E003600260006000600060006000691
:1037A0000006000600060006000000000000000001
:1037B000001E003F8073806180618001000300066D
:1037C000000C001800300060807F807F0000000047
:1037D00000000000001C003E006300630003000EB8
:1037E000000E00038001800180618073003F001E95
:1037F00000000000000000000006000E000E001E89
:10380000001E0016003600360066807F807F0006AE
:10381000000600060000000000000000007F007F9E
:10382000006000600060006E007F806380018001A6
:1038300080618073003F001E000000000000000057
:10384000001E003F803380610060006E007F807347
:103850008061806180618033003F001E00000000B5
:1038600000000000807F807F8001000300030006CD
:103870000006000C000C000C0008001800180018CE
:103880000000000000000000001E003F8063806117
:1038900080610021001E003F806180618061806145
:1038A000003F001E0000000000000000001E003F5E
:1038B00000738061806180618073803F801D800122
:1038C00080610073003F001E000000000000000047
:1038D0000000000000000000000C000C00000000D0
:1038E0000000000000000000000C000C00000000C0
:1038F0000000000000000000000000000000000CBC
:10390000000C00000000000000000000000C000C93
:103910000004000400080000000000000000800017
:103920008003000E003800600038000E8003800025
:103930000000000000000000000000000000000087
:1039400000000000807F807F00000000807F807F7B
:103950000000000000000000000000000000000067
:1039600000000000000000400070001C0007800103
:103970000007001C00700040000000000000000074
:1039800000000000001F803FC071C060C000C00187
:1039900080030007000E000C000C0000000C000C5F
:1039A0000000000000000000001E003F8031807118
:1039B0008063806F806D806D806F806700600032F3
:1039C000003E001C0000000000000000000E000E81
:1039D000001B001B001B001B80318031803F803F9B
:1039E0008031C060C060C0600000000000000000C6
:1039F000007C007E0063006300630063007E007E45
:103A00000063806180618063007F007E00000000B1
:103A100000000000001E003F8031806100600060F7
:103A2000006000600060006080618031003F001E27
:103A30000000000000000000007C007F0063806345
:103A4000806180618061806180618061006300636A
:103A5000007E007C0000000000000000807F807F6E
:103A60000060006000600060007F007F0060006018
:103A700000600060807F807F000000000000000088
:103A8000807F807F0060006000600060007F007FBA
:103A900000600060006000600060006000000000E6
:103AA00000000000001E003F803180610060006067
:103AB000006080638063806180618031803F001E90
:103AC0000000000000000000806180618061806172
:103AD00080618061807F807F8061806180618061A2
:103AE000806180610000000000000000003F003F96
:103AF000000C000C000C000C000C000C000C000C66
:103B0000000C000C003F003F00000000000000001F
:103B1000800180018001800180018001800180019D
:103B20008001806180618073003F001E0000000002
:103B300000000000C0608061006300660066006CE9
:103B40000078007C00660066006380618061C06070
:103B500000000000000000000060006000600060E5
:103B60000060006000600060006000600060006055
:103B7000807F807F0000000000000000C071C071E5
:103B8000C07BC07AC06AC06AC06EC064C060C060DA
:103B9000C060C060C060C0600000000000000000A5
:103BA00080718071807980798079806D806D806D81
:103BB00080658067806780678063806300000000A5
:103BC00000000000001E003F0033806180618061C2
:103BD000806180618061806180610033003F001EF0
:103BE0000000000000000000007E007F8063806114
:103BF000806180618063007F007E00600060006003
:103C0000006000600000000000000000001E003F97
:103C10000033806180618061806180618061806546
:103C200080670033803F401E00000000000000005D
:103C3000007E007F8063806180618063007F007E02
:103C400000660063006380618061C0600000000066
:103C500000000000000E001F80318031003000386D
:103C6000001E00078003806180618031003F001EDC
:103C70000000000000000000C0FFC0FF000C000CAE
:103C8000000C000C000C000C000C000C000C000CD4
:103C9000000C000C0000000000000000806180614A
:103CA000806180618061806180618061806180610C
:103CB00080618073003F001E0000000000000000D3
:103CC000C060C060C060803180318031001B001B4B
:103CD000001B001B000E000E000E00040000000080
:103CE00000000000C0C0C0C0C0C0C0C0C0C0C0CCC8
:103CF000804C804C805E80528052807380618061F5
:103D00000000000000000000C0C08060806100333F
:103D1000003B001E000C000C001E001F003B8071C9
:103D20008061C0C00000000000000000C0C08061D1
:103D3000806100330033001E001E000C000C000CDC
:103D4000000C000C000C000C000000000000000043
:103D5000803F803F8001000300030006000C000C40
:103D60000018001800300060807F807F0000000095
:103D70000000000F000F000C000C000C000C000CE9
:103D8000000C000C000C000C000C000C000C000CD3
:103D9000000C000F000F0000001800180018000CA5
:103DA000000C000C000C00060006000600060003D4
:103DB00000030003000000000000001E001E0006BB
:103DC00000060006000600060006000600060006C3
:103DD00000060006000600060006001E001E000089
:103DE000000C000C001E0012003300338061806163
:103DF00000000000000000000000000000000000C3
:103E000000000000000000000000000000000000B2
:103E100000000000000000000000000000000000A2
:103E20000000E0FF0000000000380018000C000057
:103E30000000000000000000000000000000000082
:103E40000000000000000000000000000000000072
:103E500000000000001F803F80618001801F803FC4
:103E600080618063807FC038000000000000000097
:103E70000060006000600060006E007F8073806101
:103E80008061806180618073007F006E00000000AF
:103E9000000000000000000000000000001E003FC5
:103EA000807380610060006080618073003F001E4D
:103EB00000000000000000008001800180018001FE
:103EC000801D803F8073806180618061806180732C
:103ED000803F801D00000000000000000000000086
:103EE00000000000001E003F00738061807F807F23
:103EF00000608071003F001E000000000000000014
:103F0000C007C00F000C000C807F807F000C000CED
:103F1000000C000C000C000C000C000C0000000059
:103F200000000000000000000000801D803F807342
:103F300080618061806180618073803F801D80012D
:103F40008063007F003E0000006000600060006051
:103F5000006F807F8071806180618061806180619D
:103F60008061806100000000000000000006000683
:103F700000000000003E003E0006000600060006AD
:103F80000006000600060006000000000000000613
:103F9000000600000000003E003E0006000600068D
:103FA0000006000600060006000600060046007E29
:103FB000003C000000600060006000608061006301
:103FC0000066006C007C0076006300638061C06066
:103FD0000000000000000000003E003E0006000659
:103FE00000060006000600060006000600060006A1
:103FF00000060006000000000000000000000000B5
:104000000000000080DDC0FFC0CEC0CCC0CCC0CC62
:10401000C0CCC0CCC0CCC0CC000000000000000070
:104020000000000000000000006F807F8071806150
:10403000806180618061806180618061000000003A
:10404000000000000000000000000000001E003F13
:10405000807380618061806180618073003F001E99
:104060000000000000000000000000000000006EE2
:10407000007F807380618061806180618073007FD8
:10408000006E006000600060006000000000000042
:104090000000801D803F807380618061806180614D
:1040A0008073803F801D80018001800180010000BD
:1040B00000000000000000000067803F0039003071
:1040C00000300030003000300030003000000000D0
:1040D000000000000000000000000000001E803F03
:1040E00080610060007F803F80018061007F001E52
:1040F0000000000000000000000000080018001888
:10410000007F007F00180018001800180018001821
:10411000801F800F00000000000000000000000071
:104120000000000080618061806180618061806149
:1041300080618063807F803D0000000000000000FF
:104140000000000000000000C0608031803180313C
:10415000001B001B001B000E000E000600000000EC
:1041600000000000000000000000000080DD80DD95
:1041700080DD0055005500550077007700220022B1
:10418000000000000000000000000000000000002F
:10419000806100330033001E000C000C001E003351
:1041A00000338061000000000000000000000000FB
:1041B000000080618061803100330033001B001BF0
:1041C000001B000E000E000E001C007C00700000A2
:1041D0000000000000000000C07FC07F80010003DD
:1041E0000006000C00180030C07FC07F00000000F7
:1041F0000000800380070006000600060006000697
:10420000000E001C001C000E000600060006000642
:104210000006800780030006000600060006000670
:10422000000600060006000600060006000600065E
:10423000000600060006000600060038003C000CE0
:10424000000C000C000C000C000E00070007000E14
:10425000000C000C000C000C000C003C00380000AE
:104260000000000000000000000000008038807F97
:1042700000470000000000000000000000000000F7
:1042800000000006101600061016000000000000D6
:1042900000000102030406070809000000000102F3
:1042A00003043031323334353637383941424344F0
:1042B000454640305800303132333435363738399E
:1042C00061626364656640307800040000080000A5
:1042D000000000000002000100001000FC42000885
:1042E00000000020440000000002000840430008D5
:1042F000440000208C1900001C0200080B12000072
:10430000263500080000000000000000AE2010B0BC
:10431000C800104081FFA1A6A83FA4D300D5F0D9C2
:1043200022DA12DB208D14AF2E0000000000000006
:104330000100000010000000000000000024F40054
:04000005080001C529
:00000001FF
